:020000040000FA
:0400000007EF00F016
:0A0008001C8230ED04F0EDEF07F06C
:10080000001717120F02050900002F49504E2D4501
:1008100053494D452D75434F4E54524F4C41444F13
:100820005245532D3E4A6F7368756148647A2F00B4
:1008300050756C7361206465206E7565766F3D44FC
:10084000004F7472613F0030207365670031207380
:1008500065670032207365670033207365670000A9
:100860000600F3CF09F0F4CF0AF0F6CF0BF0F7CF84
:100870000CF0F8CF0DF0F5CF0EF0F2A242EF04F03D
:1008800044EF04F060EF04F016B049EF04F04BEFD2
:1008900004F053EF04F0B30ED76EB50ED66E010E12
:1008A0001B6EC3EF05F0670ED76E690ED66E020E93
:1008B0001B6E010E87EC07F0C3EF05F0C3EF05F0E8
:1008C000F2A465EF04F067EF04F0C3EF05F01850F1
:1008D0001910D8A46EEF04F070EF04F088EF04F064
:1008E000000E036E000E026E000E056E000E046E0A
:1008F000C1EC07F00A0E026E080E036ED9EC06F08A
:10090000F00ED76EBE0ED66E184A192AB4EF04F058
:1009100018041910D8A48FEF04F091EF04F09BEFA6
:1009200004F0010E056E080E066E000E076EA6ECB2
:1009300007F080EF04F0020E18181910D8A4A3EFE6
:1009400004F0A5EF04F0B4EF04F0000E036E010E06
:10095000026E000E056E000E046EC1EC07F0000E74
:10096000B0EC06F080EF04F016B0B9EF04F0BBEF86
:1009700004F0F2EF04F015BEC9EF04F0155007E1E2
:10098000280E145CD8B0C7EF04F0C9EF04F0F2EF02
:1009900004F01B04D8A4CFEF04F0D1EF04F0F2EF81
:1009A00004F0180E87EC07F0B30ED76EB50ED66EB6
:1009B000144A152A15BEE6EF04F0155009E1280E79
:1009C000145CD8A0E6EF04F0E8EF04F0C3EF05F004
:1009D000164A172A000E156E000E146E000E1B6EBE
:1009E000C3EF05F016A0F7EF04F0F9EF04F07AEF8B
:1009F00005F0020E1B18D8A400EF05F002EF05F079
:100A00007AEF05F08A82000E036E000E026E000E71
:100A1000056E000E046EC1EC07F014501510D8A43A
:100A200014EF05F016EF05F01EEF05F0590E026EFB
:100A3000080E036ED9EC06F052EF05F01404151001
:100A4000D8A425EF05F027EF05F02FEF05F0530EA2
:100A5000026E080E036ED9EC06F052EF05F0020E9E
:100A600014181510D8A437EF05F039EF05F041EF51
:100A700005F04D0E026E080E036ED9EC06F052EF33
:100A800005F014501510D8A448EF05F04AEF05F012
:100A900052EF05F0470E026E080E036ED9EC06F019
:100AA00052EF05F0670ED76E690ED66E144A152AFE
:100AB00015BE64EF05F0155009E1040E145CD8A0D2
:100AC00064EF05F066EF05F0C3EF05F0020E1626A1
:100AD000000E1722000E156E000E146E030E1B6E14
:100AE0008A92010E87EC07F0F00ED76EBE0ED66E1E
:100AF000C3EF05F0030E1B18D8A481EF05F083EFB8
:100B000005F05EEF04F01A50D8A489EF05F08BEFE2
:100B100005F0A3EF05F0000E036E000E026E000E4E
:100B2000056E000E046EC1EC07F0410E026E080E59
:100B3000036ED9EC06F0F00ED76EBE0ED66E010E27
:100B40001A6EC3EF05F01A04D8A4A9EF05F0ABEFB5
:100B500005F05EEF04F0000E036E010E026E000E53
:100B6000056E000E046EC1EC07F0300E026E080E2A
:100B7000036ED9EC06F0F00ED76EBE0ED66E000EE8
:100B80001A6EEEEF04F0F292F2940EC0F5FF0DC073
:100B9000F8FF0CC0F7FF0BC0F6FF0AC0F4FF09C056
:100BA000F3FF1C921100136EF00E8316F00E9516D3
:100BB000959C959A95988C9C8C9A8C9816EC08F03C
:100BC000300E68EC07F000D000D000F0300E68EC7A
:100BD00007F000D000D000F0320E68EC07F022ECF5
:100BE00007F00009D8A4F7EF05F0F9EF05F0EFEFF3
:100BF00005F022EC07F00009D8A401EF06F003EF9E
:100C000006F0F9EF05F0135068EC07F022EC07F05E
:100C10000009D8A40EEF06F010EF06F006EF06F07C
:100C2000080E68EC07F022EC07F00009D8A41BEFCF
:100C300006F01DEF06F013EF06F00F0E68EC07F05C
:100C400022EC07F00009D8A428EF06F02AEF06F0FE
:100C500020EF06F0010E68EC07F022EC07F0000927
:100C6000D8A435EF06F037EF06F02DEF06F0040EAE
:100C700068EC07F022EC07F00009D8A442EF06F078
:100C800044EF06F03AEF06F0800E83EC06F0120017
:100C9000046E45EC07F00009D8A451EF06F053EFBD
:100CA00006F049EF06F0F00E9516F00E831604508C
:100CB000016E026A400E0112000E0212040E036E53
:100CC000023402320132032E60EF06F001500F0BA6
:100CD00083128C9C8C9A00D000D000F08C8800D0BD
:100CE00000D000F08C98F00E831604500F0B831286
:100CF00000D000D000F08C8800D000D000F08C989C
:100D00000F0E95121200126EF00E9516F00E83164D
:100D100012500F6E106A800E0F12000E1012040E89
:100D2000116E103410320F32112E91EF06F00F5069
:100D30000F0B83128C9C8C9AFCEC07F08C88FCECDB
:100D400007F08C98F00E831612500F0B8312FCECF8
:100D500007F08C88FCEC07F08C980F0E95121200AF
:100D6000016E45EC07F00009D8A4B9EF06F0BBEF1F
:100D700006F0B1EF06F0F00E9516F00E831601386E
:100D80000F0B0F0B83128C8A8C9C09EC08F08C885B
:100D900009EC08F08C98F00E831601500F0B8312AB
:100DA00009EC08F08C8809EC08F08C980F0E95126D
:100DB0001200EFEF06F045EC07F00009D8A4E3EFCE
:100DC00006F0E5EF06F0DBEF06F002C0F6FF03C029
:100DD000F7FF0800F550B0EC06F0024A032A02C003
:100DE000F6FF03C0F7FF0800F5500009D8A4FBEF99
:100DF00006F0FDEF06F0DBEF06F01200F29ED59E46
:100E0000D59AD598D59CD596D550F80B0609D56EB0
:100E1000F00ED76EBE0ED66EF28AF2949380939245
:100E200093948A928A94F288F18CF292D09EF28EF8
:100E3000D58ED9EC07F00C0E68EC07F01EEF07F02A
:100E400007EF00F08C8C8C9AFCEC07F08C88FCECA3
:100E500007F083A62EEF07F030EF07F03BEF07F027
:100E60008C98FCEC07F08C88FCEC07F08C988C9C40
:100E7000010E44EF07F08C98FCEC07F08C88FCEC3A
:100E800007F08C988C9C000E12008C8C8C9A09ECCC
:100E900008F08C8809EC08F083A651EF07F053EFB7
:100EA00007F05EEF07F08C9809EC08F08C8809ECED
:100EB00008F08C988C9C010E67EF07F08C9809EC79
:100EC00008F08C8809EC08F08C988C9C000E1200BD
:100ED0000F6EF00E9516F00E83160F380F0B0F0BDA
:100EE00083128C9C8C9AFCEC07F08C88FCEC07F04D
:100EF0008C98F00E83160F500F0B8312FCEC07F04A
:100F00008C88FCEC07F08C980F0E95121200016E85
:100F1000F00E9516F00E831601380F0B0F0B83128F
:100F20008C9C8C9A09EC08F08C8809EC08F08C9861
:100F3000F00E831601500F0B831209EC08F08C8819
:100F400009EC08F08C980F0E951212000750080D4E
:100F5000F35048EC06F0000E086E05C0F6FF06C020
:100F6000F7FF0800F550B0EC06F0054A062A082AFB
:100F7000070E0864BEEF07F0C0EF07F0ADEF07F013
:100F8000120003BECCEF07F0035008E10204D8A022
:100F9000CCEF07F0CEEF07F0D4EF07F00450C00F0E
:100FA00087EC07F0D8EF07F00450800F87EC07F0CC
:100FB0001200280ED3EC05F022EC07F00009D8A4AB
:100FC000E4EF07F0E6EF07F0DCEF07F0060E68EC61
:100FD00007F00C0E68EC07F0120000EE14F0080E9B
:100FE000EE6AE806FDE11C901C92000EF86E080EF9
:100FF000F76E0001FEEF06F000F000F000F000F0E8
:1010000000F000F000F000F000F000F000F000F060
:10101000120000F000F000F000F000F000F000F02E
:1010200000F000F000F000F000F01200620E0F6E11
:0C103000660EE82EFED70F2EFCD7120033
:020000040020DA
:08000000FFFFFFFFFFFFFFFF00
:020000040030CA
:0E000000000C191EFF0181FF0FC00FE00F4022
:00000001FF
